:020000040000FA
:020000000CD022
:020002000000FC
:02000800AFD275
:0800180010000F0EC16E070E6F
:10002000B46E926A896A936A8A6A956A8C6A9480C5
:1000300094829484948C948E8B6AD08EF28EF28CFF
:10004000F18CF292F288F18AF08CF090F086F184D3
:10005000F294F28AD76AD66A840ED56E9E9A9F8AE7
:100060009D8A020EB06E080EAF6E080EB86E240E9A
:10007000AC6E900EAB6E006A016A040E036E080E41
:10008000046E0C0E056E100E066E140E076E180E22
:10009000086E6B0E936E2A0E956E00B209D000B0FA
:1000A000FCD7040E896E00B203D000920080F5D711
:1000B000530E936E240E956E00A209D000A0FCD7BB
:1000C000080E896E00A203D000820090F5D7530E6F
:1000D000936E240E956E00B209D000B0FCD70C0EC2
:1000E000896E00B203D000920080F5D7530E936E54
:1000F000240E956E00A209D000A0FCD7100E896EC8
:1001000000A203D000820090F5D7530E936E240E08
:10011000956E00B209D000B0FCD7140E896E00B203
:1001200003D000920080F5D7270E936E090E956ECE
:1001300000A2AFD700A0FCD7180E896E00A2A9D7E5
:1001400000820090F5D78990898218D2898089929F
:1001500015D282B006D082B20AD082B466D10FD056
:10016000F8D782B208D082B4D1D10CD0FAD782B4F9
:10017000E4D179D0FCD782B402D0E6D0FCD7898014
:100180008982FCD180501C0B03600BD0046011D01D
:10019000056021D0066031D0076041D0086051D0A1
:1001A000F1D78A8481B6D2D78A9481A6CFD7CBD70C
:1001B000F8D78A948A9681B8C9D78A948A8681B8F2
:1001C000C5D78A848A9681B8C1D78A848A8681A84D
:1001D000BDD7B9D7EED78A948A9681B8B7D78A9413
:1001E0008A8681A8B3D78A848A9681A8AFD78A8461
:1001F0008A8681A8ABD7A7D7EED78A948A9681A89A
:10020000A5D78A948A8681A8A1D78A848A9681A84C
:100210009DD78A848A8681B899D795D7EED78A9454
:100220008A9681B893D78A948A8681A88FD78A8440
:100230008A9681A88BD78A848A8681B887D783D704
:10024000EED78A968A9881A481D78A968A8881B4C3
:100250007DD78A868A9881B479D78A868A8881B43C
:1002600075D771D7EED780501C0B03600BD004609C
:1002700011D0056021D0066031D0076041D0086000
:1002800051D0F1D78A8881BA61D78A9881AA5ED77E
:100290005AD7F8D78A9A8A9E81BC58D78A9A8A8E6A
:1002A00081BC54D78A8A8A9E81BC50D78A8A8A8E1A
:1002B00081AC4CD748D7EED78A9A8A9E81BC46D764
:1002C0008A9A8A8E81AC42D78A8A8A9E81AC3ED72E
:1002D0008A8A8A8E81AC3AD736D7EED78A9A8A9E96
:1002E00081AC34D78A9A8A8E81AC30D78A8A8A9E2A
:1002F00081AC2CD78A8A8A8E81BC28D724D7EED7A6
:100300008A9A8A9E81BC22D78A9A8A8E81AC1ED70D
:100310008A8A8A9E81AC1AD78A8A8A8E81BC16D72D
:1003200012D7EED78A9E8A9C81AA10D78A9E8A8C81
:1003300081BA0CD78A8E8A9C81BA08D78A8E8A8C19
:1003400081BA04D700D7EED780501C0B03600BD0C6
:10035000046011D0056021D0066031D0076041D023
:10036000086051D0F1D78A8E81BCF0D68A9E81ACCC
:10037000EDD6E9D6F8D78C908C9283B4E7D68C90E2
:100380008C8283B4E3D68C808C9283B4DFD68C804D
:100390008C8283A4DBD6D7D6EED78C908C9283B494
:1003A000D5D68C908C8283A4D1D68C808C9283A459
:1003B000CDD68C808C8283A4C9D6C5D6EED78C903E
:1003C0008C9283B4C3D68C908C8283A4BFD68C804D
:1003D0008C9283A4BBD68C808C8283A4B7D6B3D6F0
:1003E000EED78C908C9283B4B1D68C908C8283A4FF
:1003F000ADD68C808C9283A4A9D68C808C8283A469
:10040000A5D6A1D6EED78C928C9483B09FD68C9231
:100410008C8483A09BD68C828C9483A097D68C826C
:100420008C8483A093D68FD6EED780501C0B0360AC
:100430000BD0046011D0056021D0066031D0076078
:1004400041D0086051D0F1D78C8083B27FD68C9098
:1004500083A27CD678D6F8D78C968C9883BA76D639
:100460008C968C8883BA72D68C868C9883BA6ED61A
:100470008C868C8883AA6AD666D6EED78C968C98A2
:1004800083BA64D68C968C8883BA60D68C868C9816
:1004900083BA5CD68C868C8883AA58D654D6EED77D
:1004A0008C968C9883BA52D68C968C8883BA4ED60A
:1004B0008C868C9883BA4AD68C868C8883AA46D63A
:1004C00042D6EED78C968C9883BA40D68C968C8880
:1004D00083BA3CD68C868C9883BA38D68C868C8826
:1004E00083AA34D630D6EED78C9A8C9883B62ED683
:1004F0008C9A8C8883B62AD68C8A8C9883B626D61A
:100500008C8A8C8883A622D61ED6EED780501C0BF0
:1005100003600BD0046033D6056031D606602FD659
:1005200007602DD608602BD6F1D78C8483B60ED603
:100530008C9483A60BD607D6F8D780501C0B03608B
:10054000F4D704601CD605601AD6066018D607607A
:1005500016D6086014D6F1D78C8883BAF7D58C9854
:1005600083AAF4D5F0D5F8D79EBA18D8F2B205D838
:10057000F0B006D8F2B41BD81100EBD5F2921200FD
:100580000250D8B409D000720280000ED76E000E5F
:10059000D66ED58EF0901200F0901200ABB404D05D
:1005A000ABB202D0AE501200AB98AB881200F294FE
:0205B000120037
:020000040030CA
:0100000020DF
:010001000CF2
:0100020019E4
:010003001EDE
:010005008179
:010006008178
:00000001FF
