:020000040000FA
:020000000CD022
:020002000000FC
:020008001100E5
:0800180010000F0EC16E070E6F
:10002000B46E030E926E936A046A8050036E00D021
:100030001DD82AD829D80F0E8A6E18D825D824D8CA
:10004000F00E8A6E8050036E03A0F2D700D00ED857
:100050001BD81AD8CC0E8A6E09D816D815D8330EEC
:100060008A6E8050036E03A0F2D7E2D78050036EF1
:1000700003B201D0120004B0046A01D80480805099
:10008000036E03B2FCD71200006A016AFE0E026E14
:0E009000003EFED7013EFCD7023EFAD712001A
:020000040030CA
:0100000020DF
:010001000CF2
:0100020019E4
:010003001EDE
:010005008179
:010006008178
:00000001FF
